:10083800EF6441703E1209B57D3D7F111208887D35
:10084800867F171208887D7F7F261208887D1E7F85
:100858002D120888E4FD7F2C1208887D8D7F2A12CE
:1008680008887D3E7F2B1208887F01120003120939
:09087800C780037FFF227F0022EC
:070881001209B9E4FD7F013B
:10088800C291C294EF25E0547EFF7E08EF30E70363
:10089800D38001C39290D291EF25E0FFC291DEECA4
:1008A8007E08ED30E703D38001C39290D291ED2505
:0A08B800E0FDC291DEECD294D29173
:0108C2002213
:0608C300AC07AB05E4FEEA
:1008C900C291C294EF25E0547E4480FF7D08EF3049
:1008D900E703D38001C39290D291EF25E0FFC29143
:1008E900DDEC7D08D291EE25E0FEA292E4334EFEC6
:0A08F900C291DDF0D294D291AF0657
:0109030022D1
:0D09FC001208C3AE07AF04EE4BFD020888E1
:0509B400F27D087F0840
:0E09B9001208C3AE07AF04EBF45EFD0208881F
:0A02AC007857EBF208EAF208E9F2D5
:1002B600785C7493F2087470F2E47862F2FF78570F
:1002C600E2FB08E2FA08E2F98F82758300120683E0
:1002D600FE745E2FF8EEF27862E2FE8F827583007E
:1002E600120683FDEE6D7862F20FEFB404D07872D9
:1002F60074FEF2087400F2087463F27BFE7A0079E9
:100306005C7D071204FA1209B578777409F208744D
:10031600FEF2087400F208745CF20874FEF20874C7
:1003260000F208745AF27A00795C120045EF700EFA
:10033600785BE26418700218E27003FF80027FFEA9
:010346002294
:0A03DC007859EBF208EAF208E9F2A2
:1003E6007861EFF208EDF2E4FF7859E2FB08E2FAF1
:1003F60008E2F98F82758300120683FE74632FF874
:10040600EEF20FEFB406E2E4FF785CE2FB08E2FAF4
:1004160008E2F98F82758300120683FE74692FF84D
:10042600EEF20FEFB406E27877740CF20874FEF27F
:10043600087400F2087461F20874FEF2087400F29F
:1004460008745FF27BFE7A0079617F0E120049AC78
:1004560007EC70097F081208C9EF20E3027CFEAFA3
:010466000491
:010467002272
:0A05FF007857EBF208EAF208E9F27F
:10060900785C7430F208EFF2787274FEF2087400C4
:10061900F208745EF27BFE7A00795C7D021204FABC
:1006290078777404F20874FEF2087400F208745CB6
:10063900F20874FEF2087400F208745AF27BFE7A2A
:1006490000795C7F0C120049EF702C785BE26490B2
:10065900700218E27021FE745C2EF8E2FD7857E210
:10066900FB08E2FA08E2F98E82758300ED1206C2F0
:090679000EEEB410E280027FFED7
:010682002255
:0A0347007800EBF208EAF208E9F290
:10035100780574A0F208EFF2787274FEF208740066
:10036100F2087407F27D021204F47404120026EFFD
:1003710070147804E26404700218E270097805E2EE
:10038100540F640A60027FFEEF704FFE7800E2FBBB
:1003910008E2FA08E2F98E82758300120683FD7481
:1003A100052EF8EDF20EEEB410E2787274FEF2084A
:1003B1007400F2087415F27D101204F47412120024
:1003C10026EF70147804E26404700218E270097870
:0A03D10005E2540F640A60027FFE8B
:0103DB0022FF
:0C057A007857EFF208EBF208EAF208E90B
:100586001209B47D077F0D1208887D037F141209B6
:10059600FC7857E2785DF278777401F20874FEF21F
:1005A600087400F208745DF20874FEF2087400F232
:1005B60008745BF27BFE7A00795D7F0C120049EFCE
:1005C6007034785CE26410700218E27029785DE29B
:1005D600FE7858E2FB08E2FA08E2F9EE1206B07875
:1005E6005EE2FE7858E2FB08E2FA08E2F9900001C2
:0805F600EE1206C280027FFE36
:0105FE0022DA
:0A020D007857EBF208EAF208E9F274
:10021700E4785B1209B4E4FD7F0D1208887D807FC6
:100227000E1209B9785E7493F2087420F278777425
:1002370002F20874FEF2087400F208745EF20874A1
:10024700FEF2087400F208745CF27BFE7A00795EB5
:100257007F0C120049785AEFF2703EFF745E2FF858
:10026700E2FE7857E2FB08E2FA08E2F98F8275832B
:1002770000EE1206C2785BE2FE745E2FF8E2FDEE36
:100287006D785BF20FEFB404D3745E2FF8E2FF785A
:100297005BE26F60041874FEF27D807F0E1209FC2A
:0402A700785AE2FFA0
:0102AB002230
:100026007877F20874FEF2087400F2087405F20894
:1000360074FEF2087400F2087403F27A0079057B04
:03004600FE7F0C2E
:0E0049007874EBF208EAF208E9F27873EFF24D
:10005700787E74FEF2E408F208F2EF24F4600F24CD
:10006700FE7014787F7412F2087410F28009787F9A
:100077007477F2087430F2787FE24480FD7F0212D1
:1000870008887D807F041208817D807F0A1209FC21
:10009700E47882F208F27877E2FF7882E2FC08E2FD
:1000A700FDC39FEC940050247874E2FB08E2FA0841
:1000B700E2F98D828C83120683FD7F091208887806
:1000C70083E22401F218E23400F280CA7873E2FD79
:1000D7007F01120888E2B40C077D807F0D1209FCAE
:1000E70078827402F2087458F27F041208C9788182
:1000F700EFF27883E224FFF218E234FFF208E270AD
:100107000218E2600E7881E2FF20E00718E2FEEFB6
:100117005E60D67D807F0D1209B97883E270021880
:10012700E270030201FE7F061208C9EF541B600349
:100137000201F9787EF208E2FF7881E25F30E0059C
:10014700787E74FFF27873E2640C60030201FE7F2D
:100157000A1208C97881EFF27F0C1208C9EF540719
:10016700FD6025E224FFFFE434FFFEEF7803C3338D
:10017700CE33CED8F97C002DFFEC3EF9787BE2FB3D
:1001870008E2FA08E2C980147881E275F008A4FF52
:10019700787BE2FB08E2FA08E2F9E5F08FF0120655
:1001A700E47881E2700204F27881E2D3941240038A
:1001B7007412F2E47882F208F27881E2FFC378835E
:1001C700E29F18E29400502F7F091208C97878E25D
:1001D700FB08E2FA08E2F97882E2FC08E2F5828C91
:1001E70083EF1206C27883E22401F218E23400F2A8
:1001F70080C7787E74FEF27D807F0C1209FC12089E
:0502070084787EE2FF97
:01020C0022CF
:0604F4007BFE7A00790591
:0D04FA00786EEBF208EAF208E9F208EDF284
:100507007D047F051208817D807F0A1209FCE4FCC7
:100517007871E2FFECC39F501B786EE2FB08E2FAAA
:1005270008E2F98C82758300120683FD7F091208A1
:10053700880C80DC7D037F011208887CFF7F051211
:1005470008C91CEC6004EF30E2F37F221208C97877
:1005570072E2FB08E2FA08E2F9EF1206B07F211215
:1005670008C97872E2FB08E2FA08E2F9900001EFA5
:030577000206C2B7
:1007E900781A7450F2E408F2787274FEF208740010
:1007F900F208741CF27BFE7A00791A7D021204FA5F
:1008090078777404F20874FEF2087400F208741A16
:10081900F20874FEF2087400F2087418F27BFE7A8A
:0E08290000791A7F0C1200497817EFF27F0059
:01083700229E
:10090400D29300C29300D293007D0F7F0112088816
:10091400007D3D7F111208887D1E7F2D120888E41A
:10092400FD7F2C1208887D8D7F2A1208887D3E7FEA
:0E0934002B1208887D407F151208887F002254
:1009C7007F141208C9EF540370077D037F141209BF
:0109D700FC23
:0109D80022FC
:070A09007D037F140209B90F
:10099F00759850758920E4F587758DFAD29CD2AC85
:0509AF00D2AFD28E2240
:060A10001209EB020703CE
:060A1600FFFFFFFFFFFFE0
:10098800912C323031383331303832343035FF0041
:0609980000000081531174
:1009EB0012099F120904120A091209C7E4783DF291
:0109FB0022D9
:10000300E4F5CAF5CCD2CAEF1FAC0670011E4C60F2
:0B0013000730CFFDC2CF80EFC2CA2231
:1009D900D2A57F017E00120003C2A57F017E00021D
:0209E900000309
:07096F0078527411F2D299D5
:10097600C2A07F017E00120003D2A07F017E00028A
:0209860000036C
:030023000209428D
:07094200C0E0C0D075D00831
:1009490030991EC299E4FF7853E2FEEFC39E500F1F
:1009590074422FF8E2F5993099FDC2990F80E8D2D7
:010969009CF1
:05096A00D0D0D0E03206
:100703007BFE7A00793E7F5212057A7856EFF270BB
:100713000D7BFE7A00793E12020D7856EFF2785681
:10072300E2700D7BFE7A00793E1202AC7856EFF24E
:100733007856E27021785C74FEF2087400F2087453
:100743003EF27BFF7A0A79167D017F601203DC7823
:1007530056EFF21209D97856E2700F7BFE7A0079D0
:10076300427F011205FF7856EFF27856E27091123C
:02077300096F0C
:02077500808C76
:100777007BFE7A00793E7F5212057AAD07ED700B4A
:100787007BFE7A00793E12020DAD07ED700B7BFE02
:100797007A00793E1202ACAD07ED701F785C74FEEB
:1007A700F2087400F208743EF27BFF7A0A79167D2C
:1007B700017F601203DCAD071209D9ED700D7BFED6
:1007C7007A00792C7F01120347AD07ED700D7BFE90
:1007D7007A0079427F011205FFAD07ED7003120918
:0107E7006FA2
:0107E80022EE
:030000000204688F
:0C046800787FE4F6D8FD75810F0204AF28
:10068300BB010CE58229F582E5833AF583E022502C
:1006930006E92582F8E622BBFE06E92582F8E22276
:0D06A300E58229F582E5833AF583E4932290
:1006B000BB010689828A83F0225002F722BBFE0129
:0206C000F32223
:1006C200F8BB010DE58229F582E5833AF583E8F06E
:1006D200225006E92582C8F622BBFE05E92582C81A
:0206E200F22202
:1006E400BB010A89828A83F0E5F0A3F0225006F761
:0F06F40009A7F01922BBFE06F3E5F009F319225E
:10047400020A10E493A3F8E493A34003F68001F284
:1004840008DFF48029E493A3F85407240CC8C33389
:10049400C4540F4420C8834004F456800146F6DF58
:1004A400E4800B0102040810204080900988E47E57
:1004B400019360BCA3FF543F30E509541FFEE4934D
:1004C400A360010ECF54C025E060A840B8E493A314
:1004D400FAE493A3F8E493A3C8C582C8CAC583CA3F
:1004E400F0A3C8C582C8CAC583CADFE9DEE780BEF7
:01099E000058
:00000001FF
